{
  "contractName": "logFileStorage",
  "abi": [
    {
      "inputs": [
        {
          "internalType": "uint256",
          "name": "",
          "type": "uint256"
        }
      ],
      "name": "DATA",
      "outputs": [
        {
          "internalType": "string",
          "name": "ipfsHash",
          "type": "string"
        },
        {
          "internalType": "uint256",
          "name": "timestamp",
          "type": "uint256"
        },
        {
          "internalType": "string",
          "name": "campLocation",
          "type": "string"
        }
      ],
      "stateMutability": "view",
      "type": "function",
      "constant": true
    },
    {
      "inputs": [
        {
          "internalType": "string",
          "name": "ip",
          "type": "string"
        },
        {
          "internalType": "string",
          "name": "camp",
          "type": "string"
        }
      ],
      "name": "setter",
      "outputs": [],
      "stateMutability": "nonpayable",
      "type": "function"
    },
    {
      "inputs": [],
      "name": "getter",
      "outputs": [
        {
          "components": [
            {
              "internalType": "string",
              "name": "ipfsHash",
              "type": "string"
            },
            {
              "internalType": "uint256",
              "name": "timestamp",
              "type": "uint256"
            },
            {
              "internalType": "string",
              "name": "campLocation",
              "type": "string"
            }
          ],
          "internalType": "struct logFileStorage.data[]",
          "name": "",
          "type": "tuple[]"
        }
      ],
      "stateMutability": "view",
      "type": "function",
      "constant": true
    }
  ],
  "bytecode": "0x608060405234801561001057600080fd5b5061079c806100206000396000f3fe608060405234801561001057600080fd5b50600436106100415760003560e01c8063993a04b714610046578063a089d18914610064578063daaad33b14610079575b600080fd5b61004e61009b565b60405161005b919061043b565b60405180910390f35b61007761007236600461056f565b610228565b005b61008c6100873660046105d3565b6102ab565b60405161005b939291906105ec565b60606000805480602002602001604051908101604052809291908181526020016000905b8282101561021f57838290600052602060002090600302016040518060600160405290816000820180546100f290610621565b80601f016020809104026020016040519081016040528092919081815260200182805461011e90610621565b801561016b5780601f106101405761010080835404028352916020019161016b565b820191906000526020600020905b81548152906001019060200180831161014e57829003601f168201915b505050505081526020016001820154815260200160028201805461018e90610621565b80601f01602080910402602001604051908101604052809291908181526020018280546101ba90610621565b80156102075780601f106101dc57610100808354040283529160200191610207565b820191906000526020600020905b8154815290600101906020018083116101ea57829003601f168201915b505050505081525050815260200190600101906100bf565b50505050905090565b6040805160608101825283815242602082015290810182905260008054600181018255908052815182916003027f290decd9548b62a8d60345a988386fc84ba6bc95484008f6362f93160ef3e5630190819061028490826106a6565b5060208201516001820155604082015160028201906102a390826106a6565b505050505050565b600081815481106102bb57600080fd5b90600052602060002090600302016000915090508060000180546102de90610621565b80601f016020809104026020016040519081016040528092919081815260200182805461030a90610621565b80156103575780601f1061032c57610100808354040283529160200191610357565b820191906000526020600020905b81548152906001019060200180831161033a57829003601f168201915b50505050509080600101549080600201805461037290610621565b80601f016020809104026020016040519081016040528092919081815260200182805461039e90610621565b80156103eb5780601f106103c0576101008083540402835291602001916103eb565b820191906000526020600020905b8154815290600101906020018083116103ce57829003601f168201915b5050505050905083565b6000815180845260005b8181101561041b576020818501810151868301820152016103ff565b506000602082860101526020601f19601f83011685010191505092915050565b60006020808301818452808551808352604092508286019150828160051b87010184880160005b838110156104be57603f19898403018552815160608151818652610488828701826103f5565b9150508882015189860152878201519150848103888601526104aa81836103f5565b968901969450505090860190600101610462565b509098975050505050505050565b634e487b7160e01b600052604160045260246000fd5b600082601f8301126104f357600080fd5b813567ffffffffffffffff8082111561050e5761050e6104cc565b604051601f8301601f19908116603f01168101908282118183101715610536576105366104cc565b8160405283815286602085880101111561054f57600080fd5b836020870160208301376000602085830101528094505050505092915050565b6000806040838503121561058257600080fd5b823567ffffffffffffffff8082111561059a57600080fd5b6105a6868387016104e2565b935060208501359150808211156105bc57600080fd5b506105c9858286016104e2565b9150509250929050565b6000602082840312156105e557600080fd5b5035919050565b6060815260006105ff60608301866103f5565b846020840152828103604084015261061781856103f5565b9695505050505050565b600181811c9082168061063557607f821691505b60208210810361065557634e487b7160e01b600052602260045260246000fd5b50919050565b601f8211156106a157600081815260208120601f850160051c810160208610156106825750805b601f850160051c820191505b818110156102a35782815560010161068e565b505050565b815167ffffffffffffffff8111156106c0576106c06104cc565b6106d4816106ce8454610621565b8461065b565b602080601f83116001811461070957600084156106f15750858301515b600019600386901b1c1916600185901b1785556102a3565b600085815260208120601f198616915b8281101561073857888601518255948401946001909101908401610719565b50858210156107565787850151600019600388901b60f8161c191681555b5050505050600190811b0190555056fea26469706673582212203ae82e8b363e30182455418ea624f46e645f5c11a229d4b12bebf3ccee38815c64736f6c63430008110033",
  "immutableReferences": {},
  "source": "// SPDX-License-Identifier: GPL-3.0\n\npragma solidity ^0.8.0;\n\n\ncontract logFileStorage{\n    struct data{\n        string ipfsHash;\n        uint timestamp;\n        string campLocation;\n    }\n    data[] public DATA;\n    function setter(string memory ip,string memory camp)public {\n        data memory newData = data({\n            ipfsHash: ip,\n            timestamp: block.timestamp,\n            campLocation: camp\n        });\n        DATA.push(newData);\n\n    }\n    function getter()public view returns(data[] memory){\n        return DATA;\n    }\n}",
  "sourcePath": "D:\\UDEMY WEB DEV\\Research Project Working\\backend\\contracts\\LogFileStorage.sol",
  "compiler": {
    "name": "solc",
    "version": "0.8.17+commit.8df45f5f.Emscripten.clang"
  },
  "schemaVersion": "3.4.16",
  "updatedAt": "2025-06-06T07:43:18.547Z",
  "networkType": "ethereum",
  "devdoc": {
    "kind": "dev",
    "methods": {},
    "version": 1
  },
  "userdoc": {
    "kind": "user",
    "methods": {},
    "version": 1
  }
}